:020000040800F2
:1000000000500020E13D0008313E0008313E00086C
:10001000313E0008313E0008313E0008000000007B
:10002000000000000000000000000000313E000859
:10003000313E000800000000313E0008313E00085B
:10004000313E0008313E0008313E0008850B0008B3
:10005000313E0008313E0008313E0008313E0008C4
:10006000313E0008590A0008250A0008313E000800
:10007000313E0008313E0008313E0008313E0008A4
:10008000313E0008313E0008313E0008313E000894
:10009000313E0008313E0008313E0008DD0A00080C
:1000A000313E0008313E0008313E0008313E000874
:1000B000313E00082D0B00085D0B0008313E0008A2
:1000C000313E0008313E0008313E0008313E000854
:1000D000313E0008313E0008313E0008313E000844
:1000E0008D0A0008313E000800000000313E000883
:1000F000313E0008313E0008313E0008313E000824
:10010000313E0008313E0008313E0008313E000813
:10011000313E0008313E0008313E0008313E000803
:10012000313E0008313E0008313E0008313E0008F3
:1001300010B5054C237833B9044B13B10448AFF321
:1001400000800123237010BDC407002000000000C0
:100150006449000808B5034B1BB103490348AFF3DA
:10016000008008BD00000000C807002064490008A6
:10017000034613F8012B002AFBD1181A01387047E7
:1001800080B584B000AF0346FB710B46BB711346CC
:100190007B71114AFB79D3710F4ABB7913720E4AF6
:1001A0007B7953720C4BDB791A464FF4616303FB86
:1001B00002F2094B1B7A19460B461B015B1A9B0086
:1001C0001344054A527A1344FB60F86803F03EF882
:1001D00000BF1037BD4680BD600C002080B582B0E6
:1001E00000AF7860084611461A460346FB700B467E
:1001F000BB7013467B70104A7B6813600E4AFB7815
:1002000013710D4ABB7853710B4A7B78937103F0DD
:1002100035F80A4A7B685360084AFB789360074ABE
:10022000BB78D360054A7B78136103F035F800BFD3
:100230000837BD4680BD00BF600C0020006C004048
:1002400080B582B000AF0346FB7103F017F8044A93
:10025000FB79536103F020F800BF0837BD4680BD2D
:10026000006C004080B582B000AF786003F006F803
:10027000054B5B69DAB27B681A7003F00DF800BFBA
:100280000837BD4680BD00BF006C004080B582B01D
:1002900000AF0346FB7102F0F1FF044AFB79936162
:1002A00002F0FAFF00BF0837BD4680BD006C004079
:1002B00080B582B000AF786002F0E0FF054B9B692B
:1002C000DAB27B681A7002F0E7FF00BF0837BD465C
:1002D00080BD00BF006C004080B584B000AF034615
:1002E000FB710B46BB7113467B71114AFB79D371CD
:1002F0000F4ABB7913720E4A7B7953720C4BDB7930
:100300001A464FF4616303FB02F2094B1B7A19464C
:100310000B461B015B1A9B001344054A527A134497
:10032000FB60F86802F07AFF00BF1037BD4680BD61
:10033000780C002080B584B000AFB9607A603B6073
:100340000346FB73624B9A69FB7B614913438B61E4
:10035000BB68072B58D8FB7B102B38D0102B4FDCF9
:10036000042B02D0082B19D04AE05A4B1B68BA68FC
:1003700092000F2101FA02F2D2431146554A0B4076
:100380001360544B1A6879683B681943BB689B003B
:1003900001FA03F34F4913430B6094E04E4B1B6883
:1003A000BA6892000F2101FA02F2D24311464A4A7A
:1003B0000B401360484B1A6879683B681943BB6867
:1003C0009B0001FA03F3444913430B607BE0434B6A
:1003D0001B68BA6892000F2101FA02F2D24311465B
:1003E0003E4A0B4013603D4B1A6879683B681943DD
:1003F000BB689B0001FA03F3384913430B6062E0CA
:10040000374803F0D1FD5EE0FB7B102B3CD0102B76
:1004100055DC042B02D0082B1BD050E02D4B5B6821
:10042000BA68083A92000F2101FA02F2D24311464B
:10043000284A0B405360274B5A6879683B68194338
:10044000BB68083B9B0001FA03F3224913434B604E
:1004500039E0214B5B68BA68083A92000F2101FA33
:1004600002F2D24311461C4A0B4053601A4B5A68A1
:1004700079683B681943BB68083B9B0001FA03F3AA
:10048000154913434B601EE0144B5B68BA68083A89
:1004900092000F2101FA02F2D24311460F4A0B409B
:1004A00053600E4B5A6879683B681943BB68083B38
:1004B0009B0001FA03F3094913434B6003E008482A
:1004C00003F072FD00BF00BF1037BD4680BD00BF06
:1004D0000010024000080140000C014000100140E3
:1004E0007C49000880B582B000AF03463960FB71DB
:1004F0001346BB71FB79102B32D0102B46DC042B3A
:1005000002D0082B16D041E0244BDB6801213A6869
:1005100001FA02F2D2431146204A0B40D3601F4B2E
:10052000DB68B9793A6801FA02F211461B4A0B43BB
:10053000D3602FE01A4BDB6801213A6801FA02F21E
:10054000D2431146164A0B40D360154BDB68B9798C
:100550003A6801FA02F21146114A0B43D36019E0DE
:10056000104BDB6801213A6801FA02F2D2431146CE
:100570000C4A0B40D3600B4BDB68B9793A6801FA3F
:1005800002F21146074A0B43D36003E0064803F02A
:100590000BFD00BF00BF0837BD4680BD000801400D
:1005A000000C014000100140A049000880B400AFD9
:1005B000104B9B690F4A43F0040393610E4B1B6879
:1005C0000D4A23F0030313600B4B1B680A4A23F008
:1005D00004031360084B1B68074A43F008031360C9
:1005E000054BDB68044A23F00103D36000BFBD461E
:1005F00080BC7047001002400008014080B483B006
:1006000000AF0346FB7197F90730002B0BDBFB793A
:1006100003F01F02064997F907305B09012000FA31
:1006200002F241F8232000BF0C37BD4680BC704762
:1006300000E100E080B483B000AF03463960FB7195
:1006400097F90730002B0ADB3B68DAB20C4997F9BF
:1006500007301201D2B20B4483F800230AE03B6852
:10066000DAB20849FB7903F00F03043B1201D2B25E
:100670000B441A7600BF0C37BD4680BC704700BFE4
:1006800000E100E000ED00E080B500AF984B9B6911
:10069000974A43F004039361954B9B69944A43F056
:1006A00008039361934B5B68924A23F44053536071
:1006B000904B5B688F4A23F4403353608D4B1B682B
:1006C0008C4A23F4403313608A4B1B68894A23F415
:1006D00040531360884B1B68874A23F44013136010
:1006E000854B1B68844A23F040731360814B5B6821
:1006F000804A43F4004353607E4B5B687D4A23F499
:10070000804353607B4B5B687A4A43F40023536019
:10071000784B5B68774A23F480235360754B1B68E2
:10072000744A43F400231360724B1B68714A23F42C
:10073000802313606F4B1B686E4A43F400431360C1
:100740006C4B1B686B4A23F4804313606A4B1B6835
:10075000694A43F400031360674B1B68664A23F43D
:1007600080031360644B1B68634A43F000631360AB
:10077000614B1B68604A23F0806313605D4BDB684C
:100780005C4A43F40063D3605A4BDB68594A43F434
:100790008053D360574BDB68564A43F01003D36055
:1007A000544BDB68534A43F00803D360524BDB6879
:1007B000514A43F02003D3604F4BDB684E4A43F06D
:1007C0004003D3604A4B9B69494A43F0010393615C
:1007D0004A4B1B69494A23F470431361474B5B69D9
:1007E000464A23F00F035361444B9B68434A23F46A
:1007F00070439360414BDB68404A23F00F03D360A2
:100800003E4BDB683D4A23F0F003D3603B4BDB6893
:100810003A4A43F01003D360384BDB68374A23F47D
:100820007063D360354BDB68344A43F48073D36024
:10083000334B1B68324A43F400631360304B1B6830
:100840002F4A43F4805313602D4B1B682C4A43F00E
:10085000080313602A4B1B68294A43F010031360F6
:10086000274B1B68264A43F020031360244B1B6868
:10087000234A43F040031360214B9B68204A23F432
:10088000006393601E4B9B681D4A23F48053936062
:100890001B4BDB681A4A43F40063D360184BDB68D8
:1008A000174A43F48053D360154B9B68144A23F0D6
:1008B00010039360124B9B68114A23F00803936066
:1008C0000F4B9B680E4A23F0200393600C4B9B68F0
:1008D0000B4A23F040039360094BDB68084A43F05E
:1008E0001003D360064BDB68054A43F0080309E0B8
:1008F0000010024000080140000C014000000140CF
:1009000000040140D360154BDB68144A43F0200318
:10091000D360124BDB68114A43F04003D3600221DD
:100920000920FFF787FE02210A20FFF783FE02213C
:100930001720FFF77FFE02212820FFF77BFE09200A
:10094000FFF75CFE0A20FFF759FE1720FFF756FE5F
:100950002820FFF753FE00BF80BD00BF0004014008
:1009600080B582B000AF02F075FB02F0CFFB02F061
:10097000A8FF02F0D3FF02F0C3FF042301220D21E0
:100980001020FFF7D7FCFFF77FFE02F07EFE02F09B
:1009900095FE02F02FFCFFF709FE03F037F803F095
:1009A00057F903F0ABF903F0D9F91148FFF75AFCF6
:1009B0001048FFF77DFC104B104A1A60104B114A8B
:1009C0001A60114B114A1A60114B124A1A60124BED
:1009D00000221A70114B00221A70114802F06AFCB2
:1009E00000F0E4F800F05AF902F049FEF5E700BF24
:1009F000880C00208A0C00208C0C0020711200084A
:100A0000900C0020251B0008940C002011200008E9
:100A1000980C0020D91B0008840C0020860C0020B4
:100A2000600C002080B400AF094B5B6903F0100339
:100A3000002B08D0074B01221A70054B5B69044A52
:100A400043F01003536100BFBD4680BC704700BF38
:100A500000040140860C002080B400AF094B5B69A4
:100A600003F00803002B08D0074B02221A70054B35
:100A70005B69044A43F00803536100BFBD4680BC74
:100A8000704700BF00040140860C002080B400AF16
:100A9000104B5B6903F40063002B08D00E4B03225C
:100AA0001A700C4B5B690B4A43F400635361094BAA
:100AB0005B6903F48053002B08D0074B04221A70A3
:100AC000044B5B69034A43F48053536100BFBD4646
:100AD00080BC704700040140860C002080B400AF49
:100AE000104B5B6903F02003002B08D00E4B032250
:100AF0001A700C4B5B690B4A43F020035361094B9E
:100B00005B6903F04003002B08D0074B04221A70E6
:100B1000044B5B69034A43F04003536100BFBD4689
:100B200080BC704700040140860C002080B400AFF8
:100B3000084B1B7883F00103DAB2064B1A70064BA0
:100B40001B69054A23F00103136100BFBD4680BC49
:100B5000704700BF850C00200004004080B400AF47
:100B6000064B06221A70064B1B69054A23F0010347
:100B7000136100BFBD4680BC704700BF860C0020DB
:100B80000008004080B400AF064B05221A70064BE7
:100B90005B68054A23F00203536000BFBD4680BC7A
:100BA000704700BF860C00200028004080B500AFD1
:100BB000324B1B78013B052B59D801A252F823F088
:100BC000D90B0008F10B0008090C0008210C0008E3
:100BD000390C0008690C0008642003F077F803F072
:100BE000F3F8274B1B689847244B00221A7042E009
:100BF000642003F06BF803F0E7F8224B1B6898477A
:100C00001E4B00221A7036E0642003F05FF803F0F8
:100C1000DBF81D4B1B689847184B00221A702AE01E
:100C2000642003F053F803F0CFF8184B1B68984783
:100C3000124B00221A701EE0154B1B781A46154BFA
:100C40009B79023B42FA03F303F00103002B07D028
:100C5000114B16221A70002205210420FFF742FCD6
:100C6000064B00221A7006E002F0F4FE03E0034B8C
:100C700000221A7000BF00BF80BD00BF860C00209C
:100C80008C0C0020900C0020940C0020980C00206C
:100C9000880C0020600C0020840C002080B500AF80
:100CA0008F4B1B78162B00F2C28101A252F823F061
:100CB0000D0D00082B0D0008530D0008710D0008E4
:100CC0008F0D0008AD0D0008CB0D0008E90D0008E0
:100CD000070E0008250E0008430E0008690E0008E4
:100CE000870E0008A50E0008C30E0008890F000833
:100CF000A70F0008C50F0008E30F00082F10000819
:100D00002F1000082F10000811100008754B764AAC
:100D10001A60764B764A1A60764B774A1A60774BA0
:100D2000774A1A6000F0B6F990E1764B764A07CA26
:100D300083E807006B4B754A1A606C4B744A1A6063
:100D40006C4B724A1A606D4B704A1A6000F090FA50
:100D50007CE1644B6D4A1A60644B6E4A1A60654BC5
:100D60006D4A1A60654B6D4A1A6000F039FB6DE1FF
:100D70005C4B664A1A605D4B694A1A605D4B694A72
:100D80001A605E4B684A1A6000F0F2FB5EE1554B58
:100D90005E4A1A60554B654A1A60564B644A1A609F
:100DA000564B644A1A6000F013FC4FE14D4B574A12
:100DB0001A604E4B604A1A604E4B604A1A604F4BA5
:100DC0005F4A1A6000F034FC40E1464B4F4A1A601B
:100DD000464B5C4A1A60474B4C4A1A60474B4B4A99
:100DE0001A6000F09FFE31E13E4B484A1A603F4BCB
:100DF000554A1A603F4B554A1A60404B544A1A6094
:100E000000F044FF22E1374B404A1A60374B514A09
:100E10001A60384B504A1A60384B504A1A6000F03A
:100E20009FFF13E12F4B394A1A60304B424A1A6038
:100E3000304B4B4A1A60314B4A4A1A6000F0FAFFB5
:100E400004E1494B1A78494B1A70264B2F4A1A6015
:100E5000264B474A1A60274B2C4A1A60274B2B4ACD
:100E60001A6001F0D5F8F1E01E4B284A1A601F4BBA
:100E7000404A1A601F4B404A1A60204B3E4A1A6093
:100E800001F0A6F9E2E0174B204A1A60174B3B4AE3
:100E90001A60184B384A1A60184B374A1A6001F02A
:100EA00087FAD3E00F4B194A1A60104B344A1A6084
:100EB000104B314A1A60114B2F4A1A6001F068FB3F
:100EC000C4E0084B114A1A60084B2E4A1A60094BBD
:100ED000294A1A60094B284A1A6001F049FCB5E01A
:100EE000840C00208C0C002071120008900C002053
:100EF000251B0008940C002011200008980C0020ED
:100F0000D91B00086C0C0020600C00209510000814
:100F1000E11300087115000825170008551700088F
:100F2000D115000881170008AD1700083116000818
:100F3000D917000801190008811A0008291A0008A9
:100F4000551A00088D1C0008611D0008091F0008C3
:100F5000351F0008351E0008611F00088D1F00089E
:100F6000B91F0008E51F0008880C0020890C00202C
:100F7000D1210008B1230008F12E000891250008B6
:100F80007127000851290008314B324A1A60324B50
:100F9000324A1A60324B334A1A60334B314A1A6074
:100FA00001F0D6FC52E02A4B2A4A1A602A4B2F4AFB
:100FB0001A602B4B2B4A1A602B4B2A4A1A6001F0FD
:100FC000B7FD43E0224B234A1A60234B284A1A609C
:100FD000234B244A1A60244B224A1A6001F098FEDF
:100FE00034E0244B01221A70234B244A07CA83E8B9
:100FF0000700174B174A1A60174B214A1A60184B03
:10100000144A1A60184B134A1A6000F0E5FD1DE0FF
:101010000F4B104A1A60104B0E4A1A60104B0D4AC3
:101020001A60114B0B4A1A6001F0BCFF0EE0084B2E
:10103000144A1A60084B144A1A60094B134A1A6082
:10104000094B134A1A6000F025F800BF00BF80BDAD
:101050008C0C002095100008900C0020312B00080B
:10106000940C0020F12E0008980C0020112D00088F
:10107000811A0008870C00206C0C0020780C0020DE
:101080008D1C000871120008251B000811200008A3
:10109000D91B000880B584B000AF0023FB6007E0D7
:1010A000674AFB681344FF221A70FB680133FB6038
:1010B000FB68B3F5906FF3DB624B5B7918463B46F8
:1010C0000A22194602F0F8FE3B465D4A0221012041
:1010D00002F0B4FB5C4B5A4A0221032002F0AEFB43
:1010E000584B1B7918463B460A22194602F0E4FE8B
:1010F0003B46534A0221042002F0A0FB524B504AC7
:101100000221062002F09AFB4E4B1B6818463B4614
:101110000A22194602F0D0FE3B46494A0221072026
:1011200002F08CFB474B9B79023B062B41D801A276
:1011300052F823F0511100085F1100086D110008EA
:101140007B1100088911000897110008A5110008FB
:101150003E4B3B4A0421022002F070FB2FE03C4B47
:10116000374A0421022002F069FB28E0394B344A57
:101170000421022002F062FB21E0374B304A0421B7
:10118000022002F05BFB1AE0344B2D4A04210220BE
:1011900002F054FB13E0324B294A0421022002F0F2
:1011A0004DFB0CE02F4B264A0421022002F046FBA7
:1011B00005E02D4B224A0421022002F03FFB214B87
:1011C000DB7918463B460A22194602F075FE3B467B
:1011D0001B4A0621012002F031FB1B4B184A062155
:1011E000032002F02BFB174B1B7A18463B460A22C2
:1011F000194602F061FE3B46114A0621042002F026
:101200001DFB114B0E4A0621062002F017FB0D4B69
:101210005B7A18463B460A22194602F04DFE3B46D1
:10122000074A0621072002F009FB054802F06FFA81
:101230000E4B00221A7000BF1037BD4680BD00BFA4
:10124000E0070020600C0020E4490008E84900089D
:10125000F0490008F8490008044A0008104A00084C
:10126000184A0008244A00082C4A0008840C002070
:1012700080B584B000AF0023FB6007E04C4AFB68F8
:101280001344FF221A70FB680133FB60FB68B3F55F
:10129000906FF3DB474B5B7918463B460A221946B1
:1012A00002F00AFE3B46424A0221012002F0C6FA41
:1012B000414B3F4A0221032002F0C0FA3D4B1B790B
:1012C00018463B460A22194602F0F6FD3B46384ACC
:1012D0000221042002F0B2FA374B354A02210620DF
:1012E00002F0ACFA334B1B6818463B460A221946FB
:1012F00002F0E2FD3B462E4A0221072002F09EFA50
:101300002C4B9B79023B062B41D801A252F823F0CB
:101310002D1300083B130008491300085713000859
:10132000651300087313000881130008234B204A3B
:101330000421022002F082FA2FE0214B1C4A0421F2
:10134000022002F07BFA28E01E4B194A04210220F9
:1013500002F074FA21E01C4B154A0421022002F02D
:101360006DFA1AE0194B124A0421022002F066FAC3
:1013700013E0174B0E4A0421022002F05FFA0CE042
:10138000144B0B4A0421022002F058FA05E0124BDC
:10139000074A0421022002F051FA054802F0B7F989
:1013A0000E4B01221A7000BF1037BD4680BD00BF32
:1013B000E00700206C0C0020E4490008E849000820
:1013C000F0490008F8490008044A0008104A0008DB
:1013D000184A0008244A00082C4A0008840C0020FF
:1013E00080B584B000AF0023FB6007E0524AFB6881
:1013F0001344FF221A70FB680133FB60FB68B3F5EE
:10140000906FF3DB4D4B5B7918463B460A22194639
:1014100002F052FD3B46484A0221012002F00EFA3A
:10142000474B454A0221032002F008FA434B1B793F
:1014300018463B460A22194602F03EFD3B463E4A0C
:101440000221042002F0FAF93D4B3B4A022106201A
:1014500002F0F4F93B4B1B78012B06D13A4B364A8C
:101460000221072002F0EAF90DE0344B1B68184610
:101470003B460A22194602F01FFD3B462E4A022136
:10148000072002F0DBF92D4B9B79023B062B42D85B
:1014900001A252F823F000BFB5140008C3140008DD
:1014A000D1140008DF140008ED140008FB14000834
:1014B00009150008254B204A0421022002F0BEF93C
:1014C0002FE0234B1C4A0421022002F0B7F928E048
:1014D000204B194A0421022002F0B0F921E01E4BF2
:1014E000154A0421022002F0A9F91AE01B4B124A06
:1014F0000421022002F0A2F913E0194B0E4A042144
:10150000022002F09BF90CE0164B0B4A042102204A
:1015100002F094F905E0144B074A0421022002F07E
:101520008DF9054802F0F3F8104B02221A7000BF43
:101530001037BD4680BD00BFE00700206C0C0020C6
:10154000E4490008850C0020344A0008E8490008F6
:10155000F0490008F8490008044A0008104A000849
:10156000184A0008244A00082C4A0008840C00206D
:1015700080B582B000AF114B1B78012B06D1104B08
:10158000104A0221042002F059F90DE00E4B1B799C
:1015900018463B460A22194602F08EFC3B46094A91
:1015A0000221042002F04AF9064802F0B0F8074B85
:1015B00003221A7000BF0837BD4680BD850C00208D
:1015C000344A0008E00700206C0C0020840C002046
:1015D00080B584B000AF114B1B78012B06D1104BA6
:1015E000104A0221012002F029F90DE00E4B5B792F
:1015F00018463B1D0A22194602F05EFC3B1D094AB3
:101600000221012002F01AF9064802F080F8074B87
:1016100004221A7000BF1037BD4680BD850C002023
:10162000344A0008E0070020600C0020840C0020F1
:1016300080B500AF2E4B1B78012B06D12D4B2E4AC7
:101640000421022002F0FAF84DE02C4B9B79023B7A
:10165000062B42D801A252F823F000BF79160008E9
:101660008716000895160008A3160008B116000892
:10167000BF160008CD160008214B1F4A0421022086
:1016800002F0DCF82FE01F4B1B4A0421022002F07D
:10169000D5F828E01C4B184A0421022002F0CEF8AD
:1016A00021E01A4B144A0421022002F0C7F81AE084
:1016B000174B114A0421022002F0C0F813E0154B29
:1016C0000D4A0421022002F0B9F80CE0124B0A4A3C
:1016D0000421022002F0B2F805E0104B064A042172
:1016E000022002F0ABF80E4B05221A7000BF80BD3D
:1016F000850C0020384A0008E00700206C0C002010
:10170000E8490008F0490008F8490008044A0008C0
:10171000104A0008184A0008244A00082C4A000809
:10172000840C002080B400AF094B1B680133084AC9
:101730001360074B1B6840F63302934203D9044BF6
:101740004FF4FA621A6000BFBD4680BC704700BF0C
:101750006C0C002080B400AF084B1B68013B074AAB
:101760001360064B1B68B3F5FA6F03D8034B40F6C2
:1017700033021A6000BFBD4680BC70476C0C00206D
:1017800080B400AF084B1B790133DAB2064B1A71F3
:10179000054B1B790C2B02D9034B01221A7100BF98
:1017A000BD4680BC704700BF6C0C002080B400AF09
:1017B000084B1B79013BDAB2064B1A71054B1B79BA
:1017C000002B02D1034B0C221A7100BFBD4680BC16
:1017D000704700BF6C0C002080B400AF474B5B79B2
:1017E0000133DAB2454B5A71444B1B79012B0CBFC4
:1017F00001230023DAB2414B1B79032B0CBF0123D9
:101800000023DBB21343DBB21A463C4B1B79052B9A
:101810000CBF01230023DBB21343384A1279072A95
:101820000CBF01220022D2B21343344A1279082A93
:101830000CBF01220022D2B21343304A12790A2A85
:101840000CBF01220022D2B213432C4A12790C2A77
:101850000CBF01220022D2B21343002B49D0274BE8
:101860005B791F2B02D9254B01225A71234B1B791F
:10187000042B0CBF01230023DAB2204B1B79062B6B
:101880000CBF01230023DBB21343DBB21A461B4B10
:101890001B79092B0CBF01230023DBB21343174A2A
:1018A00012790B2A0CBF01220022D2B21343002B63
:1018B00006D0124B5B791E2B02D9104B01225A71B4
:1018C0000E4B1B79022B14D10C4B1B6803F0030346
:1018D000002B07D1094B5B791D2B0AD9074B01223D
:1018E0005A7106E0054B5B791C2B02D9034B012290
:1018F0005A7100BFBD4680BC704700BF6C0C002011
:1019000080B400AF474B5B79013BDAB2454B5A716B
:10191000444B1B79012B0CBF01230023DAB2414B4E
:101920001B79032B0CBF01230023DBB21343DBB273
:101930001A463C4B1B79052B0CBF01230023DBB25D
:101940001343384A1279072A0CBF01220022D2B26F
:101950001343344A1279082A0CBF01220022D2B262
:101960001343304A12790A2A0CBF01220022D2B254
:1019700013432C4A12790C2A0CBF01220022D2B246
:101980001343002B49D0274B5B79002B02D1254B09
:101990001F225A71234B1B79042B0CBF01230023F8
:1019A000DAB2204B1B79062B0CBF01230023DBB2DC
:1019B0001343DBB21A461B4B1B79092B0CBF0123C7
:1019C0000023DBB21343174A12790B2A0CBF012202
:1019D0000022D2B21343002B06D0124B5B79002BAE
:1019E00002D1104B1E225A710E4B1B79022B14D1BF
:1019F0000C4B1B6803F00303002B07D1094B5B79E9
:101A0000002B0AD1074B1D225A7106E0054B5B796A
:101A1000002B02D1034B1C225A7100BFBD4680BC73
:101A2000704700BF6C0C002080B400AF084B9B795E
:101A30000133DAB2064B9A71054B9B79082B02D918
:101A4000034B02229A7100BFBD4680BC704700BFA5
:101A50006C0C002080B400AF084B9B79013BDAB2DC
:101A6000064B9A71054B9B79012B02D8034B082238
:101A70009A7100BFBD4680BC704700BF6C0C00204F
:101A800080B500AF214B1B78112B2ED0112B36DCEB
:101A9000042B02D0092B0BD031E01D4B18681C4BD6
:101AA00019791B4B5A791A4B9B79FEF797FB27E064
:101AB000184B1B78002B0ED0174B154A07CA83E82A
:101AC0000700154BDB79144A117A134A527A1846EB
:101AD000FEF702FC14E00E4BDB790D4A117A0C4A3A
:101AE000527A1846FEF74CFB0AE00C4B1A780C4B66
:101AF0001A700B4B1B781846FEF7A2FB00E000BFE4
:101B0000024B00221A7000BF80BD00BF840C002071
:101B10006C0C0020870C0020780C0020890C002021
:101B2000880C002080B584B000AF0023FB6007E084
:101B3000254AFB681344FF221A70FB680133FB60DF
:101B4000FB68B3F5906FF3DB204BDB7918463B461F
:101B50000A22194602F0B0F93B461B4A0621012031
:101B600001F06CFE1A4B184A0621032001F066FEB4
:101B7000164B1B7A18463B460A22194602F09CF97E
:101B80003B46114A0621042001F058FE104B0E4A34
:101B90000621062001F052FE0C4B5B7A18463B46AC
:101BA0000A22194602F088F93B46074A0621072017
:101BB00001F044FE044801F0AAFD064B06221A700B
:101BC00000BF1037BD4680BDE00700206C0C002030
:101BD000E4490008840C002080B584B000AF0023E5
:101BE000FB6007E0254AFB681344FF221A70FB687C
:101BF0000133FB60FB68B3F5906FF3DB204BDB79BF
:101C000018463B460A22194602F056F93B461B4A43
:101C10000621012001F012FE1A4B184A062103206A
:101C200001F00CFE164B1B7A18463B460A22194659
:101C300002F042F93B46114A0621042001F0FEFD64
:101C4000104B0E4A0621062001F0F8FD0C4B5B7A82
:101C500018463B460A22194602F02EF93B46074A2F
:101C60000621072001F0EAFD044801F050FD064B73
:101C700012221A7000BF1037BD4680BDE007002059
:101C80006C0C0020E4490008840C002080B584B06E
:101C900000AF0023FB6007E02B4AFB681344FF22E0
:101CA0001A70FB680133FB60FB68B3F5906FF3DBE0
:101CB000264B1B78012B06D1254B234A06210120F8
:101CC00001F0BCFD0DE0234BDB7918463B460A22B0
:101CD000194602F0F1F83B461B4A0621012001F0AB
:101CE000ADFD1D4B184A0621032001F0A7FD194B3D
:101CF0001B7A18463B460A22194602F0DDF83B469D
:101D0000114A0621042001F099FD134B0E4A0621C9
:101D1000062001F093FD0F4B5B7A18463B460A22E2
:101D2000194602F0C9F83B46074A0621072001F090
:101D300085FD054801F0EBFC084B07221A7000BF37
:101D40001037BD4680BD00BFE0070020850C002095
:101D5000344A00086C0C0020E4490008840C002080
:101D600080B584B000AF0023FB6007E02B4AFB681E
:101D70001344FF221A70FB680133FB60FB68B3F564
:101D8000906FF3DB264BDB7918463B460A22194657
:101D900002F092F83B46214A0621012001F04EFD57
:101DA000204B1E4A0621032001F048FD1E4B1B78E4
:101DB000012B06D11D4B194A0621012001F03EFDE1
:101DC0000DE0174B1B7A18463B460A22194602F0D3
:101DD00073F83B46114A0621042001F02FFD114BF8
:101DE0000E4A0621062001F029FD0D4B5B7A1846AC
:101DF0003B460A22194602F05FF83B46074A062195
:101E0000072001F01BFD054801F081FC084B08226A
:101E10001A7000BF1037BD4680BD00BFE00700202C
:101E20006C0C0020E4490008850C0020344A0008AE
:101E3000840C002080B584B000AF0023FB6007E075
:101E40002B4AFB681344FF221A70FB680133FB60C6
:101E5000FB68B3F5906FF3DB264BDB7918463B4606
:101E60000A22194602F028F83B46214A06210120A1
:101E700001F0E4FC204B1E4A0621032001F0DEFCA9
:101E80001C4B1B7A18463B460A22194602F014F8EE
:101E90003B46174A0621042001F0D0FC164B144A99
:101EA0000621062001F0CAFC144B1B78012B06D139
:101EB000134B0F4A0621012001F0C0FC0DE00D4B31
:101EC0005B7A18463B460A22194601F0F5FF3B466D
:101ED000074A0621072001F0B1FC054801F017FC74
:101EE000084B09221A7000BF1037BD4680BD00BFE5
:101EF000E00700206C0C0020E4490008850C00205D
:101F0000344A0008840C002080B400AF084BDB7911
:101F10000133DAB2064BDA71054BDB79172B02D9A4
:101F2000034B0022DA7100BFBD4680BC704700BF82
:101F30006C0C002080B400AF084BDB79013BDAB2B7
:101F4000064BDA71054BDB79172B02D9034B1722AD
:101F5000DA7100BFBD4680BC704700BF6C0C00202A
:101F600080B400AF084B1B7A0133DAB2064B1A7209
:101F7000054B1B7A3B2B02D9034B00221A7200BF80
:101F8000BD4680BC704700BF6C0C002080B400AF21
:101F9000084B1B7A013BDAB2064B1A72054B1B7ACF
:101FA0003B2B02D9034B3B221A7200BFBD4680BCBB
:101FB000704700BF6C0C002080B400AF084B5B7A08
:101FC0000133DAB2064B5A72054B5B7A3B2B02D9CE
:101FD000034B00225A7200BFBD4680BC704700BF51
:101FE0006C0C002080B400AF084B5B7A013BDAB286
:101FF000064B5A72054B5B7A3B2B02D9034B3B22B3
:102000005A7200BFBD4680BC704700BF6C0C0020F8
:1020100080B582B000AF00237B6007E0604A7B6838
:102020001344FF221A707B6801337B607B68B3F531
:10203000906FF3DB5B4B5A4A0421012001F0FEFB59
:10204000594B574A0621012001F0F8FB574B544ADF
:102050000821012001F0F2FB554B514A0A210120D1
:1020600001F0ECFB534B4E4A0421072001F0E6FB44
:10207000514B4B4A0621072001F0E0FB4F4B484AE9
:102080000821072001F0DAFB4D4B1B7803F0010318
:10209000002B06D04B4B424A0421052001F0CEFB19
:1020A00005E0494B3E4A0421052001F0C7FB444BA3
:1020B0001B7803F00203002B06D0424B384A06215E
:1020C000052001F0BBFB05E03F4B354A062105200A
:1020D00001F0B4FB3A4B1B7803F00403002B06D04D
:1020E000384B2F4A0821052001F0A8FB05E0364BAC
:1020F0002B4A0821052001F0A1FB314B1B7803F08E
:102100000803002B06D02F4B254A0A21052001F099
:1021100095FB05E02C4B224A0A21052001F08EFB9D
:10212000274B1B7803F01003002B06D0254B1C4ACD
:1021300004210B2001F082FB05E0234B184A042107
:102140000B2001F07BFB1E4B1B7803F02003002BC0
:1021500006D01C4B124A06210B2001F06FFB05E054
:10216000194B0F4A06210B2001F068FB144B1B781A
:1021700003F04003002B06D0124B094A08210B2024
:1021800001F05CFB05E0104B054A08210B2001F033
:1021900055FB0E4B0A221A7000BF0837BD4680BDA2
:1021A000E0070020444A0008484A00084C4A00085A
:1021B000504A0008544A0008584A00085C4A00087F
:1021C000890C0020604A0008644A0008840C002042
:1021D00080B582B000AF00237B6007E0664A7B6871
:1021E0001344FF221A707B6801337B607B68B3F570
:1021F000906FF3DB614B1B78012B06D1604B5E4A7D
:102200000421012001F01AFB05E05E4B5A4A04212B
:10221000012001F013FB5C4B574A0621012001F01D
:102220000DFB5A4B544A0821012001F007FB584B83
:10223000514A0A21012001F001FB564B4E4A04216C
:10224000072001F0FBFA544B4B4A0621072001F00E
:10225000F5FA524B484A0821072001F0EFFA504B9B
:102260001B7803F00103002B06D04E4B424A042199
:10227000052001F0E3FA05E04B4B3F4A042105201D
:1022800001F0DCFA464B1B7803F00203002B06D06A
:10229000444B394A0621052001F0D0FA05E0424BB3
:1022A000354A0621052001F0C9FA3D4B1B7803F0A1
:1022B0000403002B06D03B4B2F4A0821052001F0D8
:1022C000BDFA05E0384B2C4A0821052001F0B6FA8A
:1022D000334B1B7803F00803002B06D0314B264A02
:1022E0000A21052001F0AAFA05E02F4B224A0A2113
:1022F000052001F0A3FA2A4B1B7803F01003002BF2
:1023000006D0284B1C4A04210B2001F097FA05E067
:10231000254B194A04210B2001F090FA204B1B7821
:1023200003F02003002B06D01E4B134A06210B207E
:1023300001F084FA05E01C4B0F4A06210B2001F046
:102340007DFA174B1B7803F04003002B06D0154B8A
:10235000094A08210B2001F071FA05E0124B064AE8
:1023600008210B2001F06AFA104B0B221A7000BFF3
:102370000837BD4680BD00BFE0070020850C002067
:10238000444A0008684A0008484A00084C4A0008C5
:10239000504A0008544A0008584A00085C4A00089D
:1023A000890C0020604A0008644A0008840C002060
:1023B00080B582B000AF00237B6007E0664A7B688F
:1023C0001344FF221A707B6801337B607B68B3F58E
:1023D000906FF3DB614B1B78012B06D1604B5E4A9B
:1023E0000621012001F02AFA05E05E4B5A4A062137
:1023F000012001F023FA5C4B574A0421012001F02F
:102400001DFA5A4B544A0821012001F017FA584B83
:10241000514A0A21012001F011FA564B4E4A04217B
:10242000072001F00BFA544B4B4A0621072001F01C
:1024300005FA524B484A0821072001F0FFF9504B9A
:102440001B7803F00103002B06D04E4B424A0421B7
:10245000052001F0F3F905E04B4B3F4A042105202C
:1024600001F0ECF9464B1B7803F00203002B06D079
:10247000444B394A0621052001F0E0F905E0424BC2
:10248000354A0621052001F0D9F93D4B1B7803F0B0
:102490000403002B06D03B4B2F4A0821052001F0F6
:1024A000CDF905E0384B2C4A0821052001F0C6F98A
:1024B000334B1B7803F00803002B06D0314B264A20
:1024C0000A21052001F0BAF905E02F4B224A0A2122
:1024D000052001F0B3F92A4B1B7803F01003002B01
:1024E00006D0284B1C4A04210B2001F0A7F905E077
:1024F000254B194A04210B2001F0A0F9204B1B7831
:1025000003F02003002B06D01E4B134A06210B209C
:1025100001F094F905E01C4B0F4A06210B2001F055
:102520008DF9174B1B7803F04003002B06D0154B99
:10253000094A08210B2001F081F905E0124B064AF7
:1025400008210B2001F07AF9104B0C221A7000BF01
:102550000837BD4680BD00BFE0070020850C002085
:10256000484A0008684A0008444A00084C4A0008E3
:10257000504A0008544A0008584A00085C4A0008BB
:10258000890C0020604A0008644A0008840C00207E
:1025900080B582B000AF00237B6007E0664A7B68AD
:1025A0001344FF221A707B6801337B607B68B3F5AC
:1025B000906FF3DB614B1B78012B06D1604B5E4AB9
:1025C0000821012001F03AF905E05E4B5A4A082142
:1025D000012001F033F95C4B574A0421012001F03E
:1025E0002DF95A4B544A0621012001F027F9584B86
:1025F000514A0A21012001F021F9564B4E4A04218B
:10260000072001F01BF9544B4B4A0621072001F02B
:1026100015F9524B484A0821072001F00FF9504B99
:102620001B7803F00103002B06D04E4B424A0421D5
:10263000052001F003F905E04B4B3F4A042105203A
:1026400001F0FCF8464B1B7803F00203002B06D088
:10265000444B394A0621052001F0F0F805E0424BD1
:10266000354A0621052001F0E9F83D4B1B7803F0BF
:102670000403002B06D03B4B2F4A0821052001F014
:10268000DDF805E0384B2C4A0821052001F0D6F88A
:10269000334B1B7803F00803002B06D0314B264A3E
:1026A0000A21052001F0CAF805E02F4B224A0A2131
:1026B000052001F0C3F82A4B1B7803F01003002B10
:1026C00006D0284B1C4A04210B2001F0B7F805E086
:1026D000254B194A04210B2001F0B0F8204B1B7840
:1026E00003F02003002B06D01E4B134A06210B20BB
:1026F00001F0A4F805E01C4B0F4A06210B2001F065
:102700009DF8174B1B7803F04003002B06D0154BA8
:10271000094A08210B2001F091F805E0124B064A06
:1027200008210B2001F08AF8104B0D221A7000BF0F
:102730000837BD4680BD00BFE0070020850C0020A3
:102740004C4A0008684A0008444A0008484A000801
:10275000504A0008544A0008584A00085C4A0008D9
:10276000890C0020604A0008644A0008840C00209C
:1027700080B582B000AF00237B6007E0664A7B68CB
:102780001344FF221A707B6801337B607B68B3F5CA
:10279000906FF3DB614B1B78012B06D1604B5E4AD7
:1027A0000A21012001F04AF805E05E4B5A4A0A214D
:1027B000012001F043F85C4B574A0421012001F04D
:1027C0003DF85A4B544A0621012001F037F8584B86
:1027D000514A0821012001F031F8564B4E4A04219C
:1027E000072001F02BF8544B4B4A0621072001F03B
:1027F00025F8524B484A0821072001F01FF8504B9A
:102800001B7803F00103002B06D04E4B424A0421F3
:10281000052001F013F805E04B4B3F4A0421052049
:1028200001F00CF8464B1B7803F00203002B06D096
:10283000444B394A0621052001F000F805E0424BDF
:10284000354A0621052000F0F9FF3D4B1B7803F0C7
:102850000403002B06D03B4B2F4A0821052000F033
:10286000EDFF05E0384B2C4A0821052000F0E6FF7B
:10287000334B1B7803F00803002B06D0314B264A5C
:102880000A21052000F0DAFF05E02F4B224A0A2139
:10289000052000F0D3FF2A4B1B7803F01003002B18
:1028A00006D0284B1C4A04210B2000F0C7FF05E08E
:1028B000254B194A04210B2000F0C0FF204B1B7848
:1028C00003F02003002B06D01E4B134A06210B20D9
:1028D00000F0B4FF05E01C4B0F4A06210B2000F06E
:1028E000ADFF174B1B7803F04003002B06D0154BB0
:1028F000094A08210B2000F0A1FF05E0124B064A0F
:1029000008210B2000F09AFF104B0E221A7000BF16
:102910000837BD4680BD00BFE0070020850C0020C1
:10292000504A0008684A0008444A0008484A00081B
:102930004C4A0008544A0008584A00085C4A0008FB
:10294000890C0020604A0008644A0008840C0020BA
:1029500080B582B000AF00237B6007E0664A7B68E9
:102960001344FF221A707B6801337B607B68B3F5E8
:10297000906FF3DB614B1B78012B06D1604B5E4AF5
:102980000421072000F05AFF05E05E4B5A4A04215B
:10299000072000F053FF5C4B574A0421012000F050
:1029A0004DFF5A4B544A0621012000F047FF584B77
:1029B000514A0821012000F041FF564B4E4A0A219E
:1029C000012000F03BFF544B4B4A0621072000F04A
:1029D00035FF524B484A0821072000F02FFF504B8B
:1029E0001B7803F00103002B06D04E4B424A042112
:1029F000052000F023FF05E04B4B3F4A0421052052
:102A000000F01CFF464B1B7803F00203002B06D09E
:102A1000444B394A0621052000F010FF05E0424BE7
:102A2000354A0621052000F009FF3D4B1B7803F0D5
:102A30000403002B06D03B4B2F4A0821052000F051
:102A4000FDFE05E0384B2C4A0821052000F0F6FE7B
:102A5000334B1B7803F00803002B06D0314B264A7A
:102A60000A21052000F0EAFE05E02F4B224A0A2148
:102A7000052000F0E3FE2A4B1B7803F01003002B27
:102A800006D0284B1C4A04210B2000F0D7FE05E09D
:102A9000254B194A04210B2000F0D0FE204B1B7857
:102AA00003F02003002B06D01E4B134A06210B20F7
:102AB00000F0C4FE05E01C4B0F4A06210B2000F07D
:102AC000BDFE174B1B7803F04003002B06D0154BBF
:102AD000094A08210B2000F0B1FE05E0124B064A1E
:102AE00008210B2000F0AAFE104B0F221A7000BF25
:102AF0000837BD4680BD00BFE0070020850C0020E0
:102B0000544A0008684A0008444A0008484A000835
:102B10004C4A0008504A0008584A00085C4A00081D
:102B2000890C0020604A0008644A0008840C0020D8
:102B300080B582B000AF00237B6007E0664A7B6807
:102B40001344FF221A707B6801337B607B68B3F506
:102B5000906FF3DB614B1B78012B06D1604B5E4A13
:102B60000621072000F06AFE05E05E4B5A4A062166
:102B7000072000F063FE5C4B574A0421012000F05F
:102B80005DFE5A4B544A0621012000F057FE584B77
:102B9000514A0821012000F051FE564B4E4A0A21AD
:102BA000012000F04BFE544B4B4A0421072000F05B
:102BB00045FE524B484A0821072000F03FFE504B8B
:102BC0001B7803F00103002B06D04E4B424A042130
:102BD000052000F033FE05E04B4B3F4A0421052061
:102BE00000F02CFE464B1B7803F00203002B06D0AE
:102BF000444B394A0621052000F020FE05E0424BF7
:102C0000354A0621052000F019FE3D4B1B7803F0E4
:102C10000403002B06D03B4B2F4A0821052000F06F
:102C20000DFE05E0384B2C4A0821052000F006FE79
:102C3000334B1B7803F00803002B06D0314B264A98
:102C40000A21052000F0FAFD05E02F4B224A0A2157
:102C5000052000F0F3FD2A4B1B7803F01003002B36
:102C600006D0284B1C4A04210B2000F0E7FD05E0AC
:102C7000254B194A04210B2000F0E0FD204B1B7866
:102C800003F02003002B06D01E4B134A06210B2015
:102C900000F0D4FD05E01C4B0F4A06210B2000F08C
:102CA000CDFD174B1B7803F04003002B06D0154BCE
:102CB000094A08210B2000F0C1FD05E0124B064A2D
:102CC00008210B2000F0BAFD104B10221A7000BF33
:102CD0000837BD4680BD00BFE0070020850C0020FE
:102CE000584A0008684A0008444A0008484A000850
:102CF0004C4A0008504A0008544A00085C4A000840
:102D0000890C0020604A0008644A0008840C0020F6
:102D100080B582B000AF00237B6007E0664A7B6825
:102D20001344FF221A707B6801337B607B68B3F524
:102D3000906FF3DB614B1B78012B06D1604B5E4A31
:102D40000821072000F07AFD05E05E4B5A4A082171
:102D5000072000F073FD5C4B574A0421012000F06E
:102D60006DFD5A4B544A0621012000F067FD584B77
:102D7000514A0821012000F061FD564B4E4A0A21BC
:102D8000012000F05BFD544B4B4A0421072000F06A
:102D900055FD524B484A0621072000F04FFD504B8D
:102DA0001B7803F00103002B06D04E4B424A04214E
:102DB000052000F043FD05E04B4B3F4A0421052070
:102DC00000F03CFD464B1B7803F00203002B06D0BD
:102DD000444B394A0621052000F030FD05E0424B06
:102DE000354A0621052000F029FD3D4B1B7803F0F4
:102DF0000403002B06D03B4B2F4A0821052000F08E
:102E00001DFD05E0384B2C4A0821052000F016FD79
:102E1000334B1B7803F00803002B06D0314B264AB6
:102E20000A21052000F00AFD05E02F4B224A0A2165
:102E3000052000F003FD2A4B1B7803F01003002B44
:102E400006D0284B1C4A04210B2000F0F7FC05E0BB
:102E5000254B194A04210B2000F0F0FC204B1B7875
:102E600003F02003002B06D01E4B134A06210B2033
:102E700000F0E4FC05E01C4B0F4A06210B2000F09B
:102E8000DDFC174B1B7803F04003002B06D0154BDD
:102E9000094A08210B2000F0D1FC05E0124B064A3C
:102EA00008210B2000F0CAFC104B11221A7000BF41
:102EB0000837BD4680BD00BFE0070020850C00201C
:102EC0005C4A0008684A0008444A0008484A00086A
:102ED0004C4A0008504A0008544A0008584A000862
:102EE000890C0020604A0008644A0008840C002015
:102EF00080B400AF294B1B780B3B062B48D801A2AE
:102F000052F823F0212F0008312F0008412F00082C
:102F1000512F0008612F0008712F0008812F000831
:102F20001F4B1B7883F00103DAB21D4B1A7030E09F
:102F30001B4B1B7883F00203DAB2194B1A7028E09E
:102F4000174B1B7883F00403DAB2154B1A7020E09C
:102F5000134B1B7883F00803DAB2114B1A7018E098
:102F60000F4B1B7883F01003DAB20D4B1A7010E090
:102F70000B4B1B7883F02003DAB2094B1A7008E080
:102F8000074B1B7883F04003DAB2054B1A7000E060
:102F900000BF00BFBD4680BC704700BF840C00204E
:102FA000890C002080B582B000AF00237B6007E071
:102FB000224A7B681344FF221A707B6801337B60CE
:102FC0007B68B3F5906FF3DB1D4B1C4A0621012093
:102FD00000F034FC1B4B1A7A1B4B1B7A9A4225D00B
:102FE0001A4B1B785A1ED1B2184A11701846FDF7B9
:102FF0004DF9164B1B78002B0BD0124BD879114B87
:103000001B7A0433DBB20F4A527A1946FDF764F992
:1030100008E00D4BDB790C4A117A0B4A527A1846BC
:10302000FDF75AF90A4B00221A7002E0084B1622EB
:103030001A7000BF0837BD4680BD00BFE007002002
:103040006C4A0008600C0020780C00208A0C0020DC
:10305000840C002080B400AF1C4B1B681B4A43F05B
:103060000103136000BF194B1B6803F00203002B20
:10307000F9D0164BDB69154A43F08053D361144BEA
:103080001B68134A43F01003136000BF104B1B680A
:1030900003F02003002BF9D00D4B1B680C4A43F0C2
:1030A00001031360094B094A5B685360074B074AE9
:1030B0005B685360054B054A5B685360034B034AEA
:1030C0005B68536000BFBD4680BC70470010024083
:1030D0000020024080B483B000AF0346FB7197F933
:1030E0000730002B0BDBFB7903F01F02064997F931
:1030F00007305B09012000FA02F241F8232000BFEB
:103100000C37BD4680BC704700E100E080B400AFE2
:103110001A4BDB69194A43F08053D361174BDB69C3
:10312000164A43F00063D361154B1B68144A43F4FD
:1031300080731360114B1B6A104A43F400731362CF
:103140000E4B5B6A0D4A43F00103536200BF0B4B09
:103150005B6A03F00203002BF9D0084B1B6A074A95
:1031600023F480331362054B1B6A044A43F4004383
:10317000136200BFBD4680BC704700BF0010024014
:103180000070004080B500AF00F078F800BF0A4B37
:103190005B6803F02003002BF9D000BF064B5B688F
:1031A00003F02003002BF9D0034B5B68024A43F085
:1031B0001003536000BF80BD0028004080B500AF01
:1031C0000B4B5B680A4A23F01003536000BF084BA7
:1031D0005B6803F02003002BF9D000BF044B5B6851
:1031E00003F02003002BF9D000F056F800BF80BD9B
:1031F0000028004080B500AFFFF7C4FF064B1B68F6
:10320000054A43F0020313600320FFF763FFFFF753
:10321000D5FF00BF80BD00BF0028004080B582B050
:1032200000AF7860FFF7AEFF7B689AB2064B5A6238
:103230007B681B0C9AB2044B1A62FFF7BFFF00BFFA
:103240000837BD4680BD00BF0028004080B582B071
:1032500000AF7860FFF796FF7B689AB2064BDA61A1
:103260007B689BB21A14044B9A61FFF7A7FF00BF5B
:103270000837BD4680BD00BF0028004080B400AFC5
:10328000044B1B68034A43F48073136000BFBD46C0
:1032900080BC70470070004080B400AF044B1B68D6
:1032A000034A23F48073136000BFBD4680BC70479F
:1032B0000070004080B584B000AF7860384BDA69A8
:1032C000374B9B691B041343FB60FB68354A9342F1
:1032D00037D90020FFF7BAFF7B689B790133DAB258
:1032E0007B689A717B685B790133DAB27B685A71CB
:1032F0000321786800F05CF80221786800F058F843
:103300007B689B7ADBB2012B14D17B6800229A7216
:103310007B681B790133DAB27B681A710121786806
:1033200000F046F87B680022DA727B681B685A1C42
:103330007B681A601A4BDA69194B9B691B041343AB
:10334000FB60FB68184AA2FB0323DB0ADAB27B6846
:10335000DA71FB68144AA2FB0312D20A4FF46161CE
:1033600001FB02F29B1AFB60FB68104AA2FB0323DD
:103370005B09DAB27B681A72FA680C4BA3FB021382
:1033800059090B461B015B1A9B00D31AFB60FB68B3
:10339000DAB27B685A7200BF1037BD4680BD00BFED
:1033A0000028004080510100C5B3A2918988888817
:1033B00080B582B000AF78600B46FB70FB78032BC2
:1033C00000F0A780032B00F3BA80012B00F0A98046
:1033D000022B40F0B4807B681B79012B0CBF0123CA
:1033E0000023DAB27B681B79032B0CBF0123002377
:1033F000DBB21343DBB21A467B681B79052B0CBF8B
:1034000001230023DBB213437A681279072A0CBF29
:1034100001220022D2B213437A681279082A0CBF23
:1034200001220022D2B213437A6812790A2A0CBF11
:1034300001220022D2B213437A6812790C2A0CBFFF
:1034400001220022D2B21343002B7AD07B685B7931
:103450001F2B08D97B6801225A717B689B7ADBB2EB
:10346000184600F077F87B681B79042B0CBF01230A
:103470000023DAB27B681B79062B0CBF01230023E3
:10348000DBB21343DBB21A467B681B79092B0CBFF6
:1034900001230023DBB213437A6812790B2A0CBF95
:1034A00001220022D2B21343002B0CD07B685B793F
:1034B0001E2B08D97B6801225A717B689B7ADBB28C
:1034C000184600F047F87B681B79022B39D17B68DE
:1034D0001B6803F00303002B0DD17B685B791D2B68
:1034E0002FD97B6801225A717B689B7ADBB2184620
:1034F00000F030F825E07B685B791C2B21D97B68D4
:1035000001225A717B689B7ADBB2184600F022F8E0
:1035100017E07B689B79072B15D97B6801229A718C
:1035200011E07B681B790C2B0FD97B6801221A7183
:103530007B68DB7ADBB2184600F00CF805E000BFD0
:1035400004E000BF02E000BF00E000BF00BF08379A
:10355000BD4680BD80B483B000AF0346FB7101233C
:10356000FB7100BF0C37BD4680BC704780B400AF14
:10357000064B1B7883F04003DAB2044B1A70034BFE
:103580001B781846BD4680BC704700BF9C0C0020CD
:1035900080B582B000AF0346FB71FB1D01211846C8
:1035A00000F002FA00BF0837BD4680BD80B582B08A
:1035B00000AF0346FB71FFF7D9FF03461A46FB79BC
:1035C0001343DBB2FB71FB1D0121184600F0ECF93F
:1035D00000BF0837BD4680BD80B483B000AF03464E
:1035E000FB71FB79DB09DBB25AB2FB795B115BB291
:1035F00003F002035BB213435AB2FB79DB105BB2F8
:1036000003F004035BB213435AB2FB795B105BB265
:1036100003F008035BB213435AB2FB79DB015BB2E0
:1036200013435AB2FB795B015BB203F040035BB218
:1036300013435AB2FB79DB005BB203F020035BB2A9
:1036400013435AB2FB795B005BB203F010035BB229
:1036500013435BB2FB71FB7918460C37BD4680BC47
:10366000704780B500AF00F032F80020FFF79EFFF2
:103670000020FFF78DFF00F033F800BF80BD80B55C
:1036800000AFFFF7EEFF00BF80BD80B500AF0023A5
:10369000012201210420FCF74DFE0023012202211A
:1036A0000420FCF747FE002202210420FCF71AFF49
:1036B00000F004F800F01DF800BF80BD80B500AF39
:1036C000012201210420FCF70DFF00BF80BD80B561
:1036D00000AF012202210420FCF704FF00BF80BDDF
:1036E00080B500AF002202210420FCF7FBFE00BFE2
:1036F00080BD80B500AFFFF7EAFF2020FFF756FF3F
:103700000020FFF745FFFFF7EBFF00BF80BD80B54E
:1037100084B000AF7860FFF7DAFF8020FFF746FF44
:103720000023FB7327E0FB7B0133DBB21846FFF776
:1037300053FF03461846FFF72BFF0023BB6011E041
:10374000FA7B13465B0013449B001A46BB68134484
:103750001A467B6813441B781846FFF719FFBB68AD
:103760000133BB60BB680B2BEADD0020FFF710FFC5
:10377000FB7B0133FB73FB7B5F2BD4D90020FFF76E
:1037800007FFFFF7ADFF00BF1037BD4680BD00004B
:1037900080B487B000AFBA607B600346FB730B4612
:1037A000BB73BB7B7B613BE0BB7B013B9BB21A469F
:1037B000520013445B019AB2BB7B7969CB1A9BB26E
:1037C000194649000B449B009BB213449AB2FB7B01
:1037D0009BB213449BB2013B7B827B68203B9BB234
:1037E000DB009AB27B6999B2BB7B9BB2CB1A9BB2CE
:1037F00013443B827B8ABA6813441B785AB23B8AD3
:103800000D4951F823305BB2DB435BB2134059B230
:103810007B8ABA681344CAB21A707B6901337B6130
:10382000BB7B07337A699A42BEDD00BF00BF1C37FD
:10383000BD4680BC704700BF0000002080B588B046
:1038400000AFBA607B600346FB730B46BB7300237B
:10385000FB770023BB6128E0BB697A68D11807F1C8
:1038600015030122184600F0A7FBBB69DAB2FB7B07
:103870001344DAB2FB7F19469B00CB1A9B00DBB2E4
:103880001344FB75BA7BFB7F1344BB75FB7D0B2B8D
:1038900002D9FB7F0133FB777B7DB97DF87DBA6868
:1038A000FFF776FFBB690133BB617868FCF760FC0A
:1038B0000246BB699A42CFD800BF00BF2037BD4641
:1038C00080BD80B500AF0823012207210420FCF74A
:1038D00031FD0823012205210420FCF72BFD00BF48
:1038E00080BD000080B400AF044B1B68034A23F086
:1038F0008003136000BFBD4680BC704700300140AC
:1039000080B400AF044B1B68034A43F040031360CC
:1039100000BFBD4680BC70470030014080B500AF9D
:103920001F4B9B691E4A43F4805393611D4B1B68D8
:103930001C4A23F0200313601A4B1B68194A43F0FA
:1039400018031360174B1B68164A23F00203136019
:10395000144B1B68134A23F001031360114B1B68BF
:10396000104A23F400631360FFF7BCFF0D4B1B6884
:103970000C4A43F0040313600A4B1B68094A43F4E2
:1039800000731360074B1B68064A43F4807313608F
:10399000044B00225A60034B0022DA6000BF80BD56
:1039A000001002400030014080B485B000AF786064
:1039B0000B46FB700023FB600FE000BF124B9B68BF
:1039C00003F00203022BF9D1FB687A6813441A78DA
:1039D0000D4BDA60FB680133FB60FB78FA689A42B2
:1039E000EBDB00BF084B9B6803F08003802BF9D012
:1039F000054BDB68FB72044B9B68FB7200BF1437FE
:103A0000BD4680BC704700BF0030014080B400AFAD
:103A100000BF0E4B9B6803F00103012BF9D00C4B48
:103A20005B680B4A23F480735360094B1B68084A98
:103A300043F004031360064B5B68054A43F480734C
:103A4000536000BFBD4680BC704700BF0008014006
:103A50000070004080B400AF084B1B68074A43F079
:103A600002031360064B1B69054A43F0040313610C
:103A700030BF00BFBD4680BC704700BF0070004033
:103A800000ED00E080B586B000AFF860B9607A6004
:103A900000237B610AE0AFF300800146BB685A1C3B
:103AA000BA60CAB21A707B6901337B617A697B683C
:103AB0009A42F0DB7B6818461837BD4680BD80B55A
:103AC00086B000AFF860B9607A6000237B6109E0DE
:103AD000BB685A1CBA601B781846AFF300807B693C
:103AE00001337B617A697B689A42F1DB7B68184617
:103AF0001837BD4680BD80B483B000AF78604FF00A
:103B0000FF3318460C37BD4680BC704780B483B085
:103B100000AF786039603B684FF400525A60002370
:103B200018460C37BD4680BC704780B483B000AFE8
:103B30007860012318460C37BD4680BC704780B4BE
:103B400085B000AFF860B9607A600023184614377A
:103B5000BD4680BC7047000080B586B000AF78607D
:103B6000144A154BD31A7B617B693B61134B1B686D
:103B7000002B02D1114B124A1A60104B1A687B6855
:103B800013443A699A4207D200F054F903460C22D2
:103B90001A604FF0FF3309E0084B1B68FB60074BCE
:103BA0001A687B681344054A1360FB681846183787
:103BB000BD4680BD0050002000040000A00C002085
:103BC000B80C002080B483B000AF0346FB7197F9B6
:103BD0000730002B0BDBFB7903F01F02064997F936
:103BE00007305B09012000FA02F241F8232000BFF0
:103BF0000C37BD4680BC704700E100E080B483B064
:103C000000AF03463960FB7197F90730002B0ADBE0
:103C10003B68DAB20C4997F907301201D2B20B4473
:103C200083F800230AE03B68DAB20849FB7903F025
:103C30000F03043B1201D2B20B441A7600BF0C37BB
:103C4000BD4680BC704700BF00E100E000ED00E031
:103C500080B400AF114BDB69104A43F00103D3611C
:103C60004FF0804307229A624FF080434FF6FE7276
:103C7000DA624FF080431B684FF0804243F001034B
:103C8000136000BF4FF080431B6903F00103002B5A
:103C9000F8D000BF00BFBD4680BC70470010024096
:103CA00080B483B000AF0346FB804FF08043002216
:103CB0005A6200BF4FF080435A6AFB889A42F9D398
:103CC00000BF00BF0C37BD4680BC704780B584B0D4
:103CD00000AF0346FB800023FB8106E04FF47A70BF
:103CE000FFF7DEFFFB890133FB81FA89FB889A42EB
:103CF000F4D300BF00BF1037BD4680BD80B500AF14
:103D0000144BDB69134A43F00203D361124B41F6B3
:103D10003F729A62104B40F2F312DA620E4B5B690B
:103D20000D4A43F0010353610B4BDB680A4A43F031
:103D30000103D36001211D20FFF760FF1D20FFF765
:103D400041FF054B1B68044A43F00103136000BFA9
:103D500080BD00BF001002400004004080B500AFED
:103D6000174BDB69164A43F00403D361154B41F648
:103D70003F729A62134B42F20F72DA62114B5B6927
:103D8000104A43F0010353610E4BDB680D4A43F0C8
:103D90000103D36001211E20FFF730FF1E20FFF733
:103DA00011FF084B1B68074A43F001031360054BE2
:103DB0001B69044A23F00103136100BF80BD00BFEB
:103DC000001002400008004080B400AF034B002206
:103DD0005A6200BFBD4680BC704700BF000800406B
:103DE0000D488546AFF300800C480D490D4A00236D
:103DF00002E0D458C4500433C4188C42F9D30A4AA0
:103E00000A4C002301E013600432A242FBD300F00D
:103E100017F8FCF7A5FDFEE7005000200000002089
:103E2000C4070020084B0008C4070020B40C002081
:103E3000FEE70000014B1868704700BF60070020D4
:103E400070B500260C4D0D4C641BA410A64209D180
:103E500000F088FD00260A4D0A4C641BA410A642FF
:103E600005D170BD55F8043B98470136EEE755F88B
:103E7000043B98470136F2E7004B0008004B00086E
:103E8000004B0008044B0008931E222B10B50C4673
:103E900004D900231C460B70204610BD0A2A09D104
:103EA000002807DA2D230B7001214042214400F045
:103EB00097F8F1E70021F9E7FFF7E6BF0346024470
:103EC000934200D1704703F8011BF9E770B50E4625
:103ED000054618B183690BB900F09AFAAB69AC6872
:103EE00013B9284600F094FA2C4B9C4220D16C6800
:103EF000636EDB0705D4A389980502D4A06D00F09A
:103F000025FBA38919071DD52369DBB1013EA368F1
:103F100016F8011F013BA36039BB002B38DA22469B
:103F20000A21284600F09EF8013011D00A2511E040
:103F30001B4B9C4201D1AC68DAE71A4B9C4208BF8C
:103F4000EC68D5E72146284600F0DEF80028DDD0F1
:103F50004FF0FF35636EDA0705D4A3899B0502D4C1
:103F6000A06D00F0F4FA284670BD002B04DAA269B7
:103F70009A4206DC0A2904D023685A1C2260197070
:103F8000C5E72246284600F06DF80130BFD1DFE7D3
:103F90000A2523685A1C22601D70DBE7C04A00080E
:103FA000E04A0008A04A0008024B01461868FFF7E3
:103FB0008DBF00BF60070020034610B5013932B144
:103FC00011F8014F013A03F8014B002CF7D1002101
:103FD0001A44934200D110BD03F8011BF9E7000019
:103FE000F0B58BB005460B466E461D4C04F1200C17
:103FF000374620686168083403C764453E46F7D1F8
:10400000217920683971911E222938604FF0000112
:1040100004D919700B4618460BB0F0BD581E8446E3
:10402000B5FBF2F702FB175628366E4416F8286CDB
:104030000C460CF8016F2E46B2423D4601F10101DB
:10404000EED900225A541919A51AAA42E3DA10F837
:10405000015F0E780132067001F80159F4E700BFE4
:10406000784A0008F8B50E461446054618B183692B
:104070000BB900F0CDF9214B9C422BD16C68A369A0
:10408000A360A3891A072FD523696BB3236920681E
:10409000F6B2C01A63693746834204DC21462846DB
:1040A00000F022F930BBA3680130013BA360236814
:1040B0005A1C22601E706369834204D0A389DB0707
:1040C00006D50A2E04D12146284600F00DF988B9FC
:1040D0003846F8BD0A4B9C4201D1AC68CFE7094B8A
:1040E0009C4208BFEC68CAE72146284600F00CF85D
:1040F0000028CBD04FF0FF37EAE700BFC04A0008E6
:10410000E04A0008A04A0008324B70B51D68064618
:104110000C4625B1AB6913B9284600F079F92E4B4E
:104120009C420FD16C68A389B4F90C2019072CD4D8
:10413000DD0611D40923336042F040034FF0FF3015
:10414000A3813EE0254B9C4201D1AC68EBE7244BB8
:104150009C4208BFEC68E6E7580712D5616B41B195
:1041600004F14403994202D0304600F057FA00238C
:104170006363A38923F02403A3810023636023697D
:104180002360A38943F00803A38123694BB9A38962
:1041900003F42073B3F5007F03D02146304600F0CE
:1041A000FDF9A089B4F90C2010F001030AD0002316
:1041B000A36063695B42A361236943B910F0800087
:1041C000BAD170BD810758BF6369A360F4E70020CE
:1041D000F7E700BF60070020C04A0008E04A000877
:1041E000A04A00088A89F8B5054610070C4657D43E
:1041F0004B68002B04DC0B6C002B01DC0020F8BDAD
:10420000E66A002EFAD0002312F480522F682B6049
:1042100032D0606DA3895A0705D56368C01A636BF5
:104220000BB1236CC01A00230246E66A2846216AB5
:10423000B047431CA38906D129681D292CD8294AD7
:10424000CA40D60728D5002262602269D9042260BC
:1042500004D5421C01D12B6803B96065616B2F60E6
:104260000029CBD004F14403994202D0284600F043
:10427000D5F900206063C2E7216A01232846B047D0
:10428000411CC7D12B68002BC4D01D2B01D0162B8D
:1042900001D12F60B2E7A38943F04003A381AEE7C9
:1042A0000F69002FAAD0930718BF00230E6808BF1C
:1042B0004B69F61B0F608B60002E9FDD33463A463C
:1042C0002846216AD4F828C0E047002806DCA389E4
:1042D0004FF0FF3043F04003A38190E70744361AC4
:1042E000EAE700BF0100402038B50B6905460C46DF
:1042F00013B90025284638BD18B183690BB900F001
:1043000087F8144B9C421BD16C68B4F90C30002B1D
:10431000EFD0626ED00704D4990502D4A06D00F0EE
:1043200015F928462146FFF75DFF636E0546DA075B
:10433000E0D4A3899B05DDD4A06D00F008F9D9E78E
:10434000054B9C4201D1AC68DFE7044B9C4208BF9F
:10435000EC68DAE7C04A0008E04A0008A04A000812
:10436000002310B50446C0E90033C0E9043383607C
:1043700081814366C2818361194608225C30FFF760
:104380009DFD054B24626362044BA362044BE36210
:10439000044B236310BD00BFF54700081748000811
:1043A0004F48000873480008014900F0AFB800BF4B
:1043B000E9420008682270B54D1E55430E4605F1CE
:1043C000740100F093F9044640B10021C0E90016E1
:1043D0000C30A06005F16802FFF770FD204670BD4B
:1043E000014800F0B3B800BFA50C0020014800F060
:1043F000AEB800BFA50C0020014800F0A7B800BF70
:10440000A60C0020014800F0A2B800BFA60C0020B6
:1044100010B50446FFF7F0FFA3691BB1BDE81040DB
:10442000FFF7F0BFC4E912332365134B134A1B682F
:10443000A262A34208BF0123204608BFA36100F087
:104440001FF86060204600F01BF8A060204600F0D6
:1044500017F800220421E0606068FFF781FF012265
:104460000921A068FFF77CFF02221221E068FFF714
:1044700077FF0123A361D1E7744A0008A94300082C
:10448000F8B50746FFF7ACFF1E4B1E68B36913B9BA
:104490003046FFF7BDFF4836D6E90134013B03D56E
:1044A00033680BB33668F7E7B4F90C50D5B9164B3F
:1044B00004F15800E360656600F047F8FFF796FFE7
:1044C00008222946C4E90155C4E904552560A561BF
:1044D00004F15C00FFF7F2FCC4E90D55C4E9125584
:1044E0002046F8BD6834D9E704213846FFF762FF5B
:1044F000044630600028D5D1FFF778FF0C233B60DD
:10450000EEE700BF744A00080100FFFF2DE9F84301
:1045100006468846002700F14804D4E90195B9F120
:10452000010905D52468002CF7D13846BDE8F88389
:10453000AB89012B07D9B5F90E30013303D02946D9
:104540003046C04707436835E9E770477047704712
:1045500070B50E46B1F90E10144600291D4696B0EE
:1045600008DA0022B6F90C302A601A0610D44FF48B
:1045700080630EE06A4600F0A3F90028F1DB019A9F
:1045800002F47042A2F500535A425A412A60EEE703
:1045900040230020236016B070BD00008B8973B5E6
:1045A0009D0706460C4607D504F1470323602361A7
:1045B0000123636102B070BD6A4601ABFFF7C8FF1B
:1045C00000990546304600F091F848B9B4F90C302E
:1045D0009A05EFD423F0030343F00203A381E3E73A
:1045E0000D4BB362A389206043F08003A381009B3D
:1045F00020616361019B5BB13046B4F90E1000F09D
:1046000071F928B1A38923F0030343F00103A381C7
:10461000A0890543A581CDE7A943000838B5054623
:10462000002940D051F8043C0C1F002BB8BFE418FF
:1046300000F07AF91C4A136833B9636014602846A5
:10464000BDE8384000F076B9A34208D920682118A7
:104650008B4201BF19685B6809182160EDE71A46B3
:104660005B680BB1A342FAD911685018A0420BD174
:1046700020680144501883421160E0D118685B68DB
:10468000014411605360DAE702D90C232B60D6E7AE
:10469000206821188B4201BF19685B6809182160E6
:1046A00063605460CBE738BDA80C002070B50E4E97
:1046B0000C463168054611B900F08CF8306021468F
:1046C000284600F087F8431C0AD0C41C24F00304D9
:1046D000A04207D0211A284600F07CF8013001D111
:1046E0004FF0FF34204670BDAC0C00202DE9F041A6
:1046F000CD1C25F0030508350C2D38BF0C25002DE9
:10470000074601DBA94205D90C2300263B60304651
:10471000BDE8F0812E4E00F007F933681C4634BB2B
:1047200029463846FFF7C2FF431C04464DD1346882
:104730002646002E40D123683146384604EB030854
:1047400000F048F880453AD1216803356D1A25F00C
:10475000030508350C2D38BF0C2538462946FFF7D0
:10476000A5FF01302BD023682B4423600EE0226884
:10477000521B1ED40B2A16D96119A342256018BFFB
:104780005960636808BF316062514B60384604F17C
:104790000B0600F0CFF826F00706231DF21AB6D05C
:1047A0009B1BA350B3E76268A3420CBF32605A6000
:1047B000ECE723466468B2E734467668B9E70C2331
:1047C00038463B6000F0B6F8A1E72560DEE700BFA1
:1047D000A80C002038B50023054D044608462B6080
:1047E000FFF7BAF9431C02D12B6803B1236038BD2F
:1047F000B00C002010B50C46B1F90E1000F0A0F876
:104800000028ABBF636DA3891B1823F48053ACBF92
:104810006365A38110BD2DE9F0411F468B890546D4
:10482000DB050C46164605D502230022B1F90E1011
:1048300000F068F8A389324623F48053A381284608
:104840003B46B4F90E10BDE8F04100F017B810B5C2
:104850000C46B1F90E1000F055F8431CA38915BFA2
:10486000606523F4805343F48053A38118BFA38170
:1048700010BDB1F90E1000F013B8000038B50446B1
:10488000084611460022054D2A601A46FFF717F91F
:10489000431C02D12B6803B1236038BDB00C00204B
:1048A00038B50023054D044608462B60FFF723F971
:1048B000431C02D12B6803B1236038BDB00C00202B
:1048C00038B50023064D0446084611462B60FFF715
:1048D0001DF9431C02D12B6803B1236038BD00BF12
:1048E000B00C002038B50023054D044608462B6067
:1048F000FFF71BF9431C02D12B6803B1236038BDBD
:10490000B00C002038B50446084611460022054D7B
:104910002A601A46FFF713F9431C02D12B6803B132
:10492000236038BDB00C00200148FFF70FBE00BF68
:10493000A40C00200148FFF70ABE00BFA40C002011
:1049400038B50446084611460022054D2A601A462D
:10495000FFF798F8431C02D12B6803B1236038BDE0
:10496000B00C0020F8B500BFF8BC08BC9E467047EC
:0C497000F8B500BFF8BC08BC9E467047BC
:10497C004572726F72212C206770696F2E632F47FE
:10498C0050494F5F50696E5F436F6E666967757211
:10499C00650000004572726F72212C206770696F80
:1049AC002E632F4750494F5F7365745F6F75745F4B
:1049BC0070696E004572726F72212C206770696F7E
:1049CC002E632F4750494F5F746F6F676C655F6F35
:1049DC0075745F70696E00003A0000004D4F4E44D4
:1049EC004159000054554553444159005745444ED4
:1049FC0045534441590000005448555253444159C1
:104A0C00000000004652494441590000534154559E
:104A1C00524441590000000053554E444159000086
:104A2C004552524F52000000202000002020202030
:104A3C0020202020200000004D4F4E0054554500F2
:104A4C0057454400544855004652490053415400C0
:104A5C0053554E005800000020000000202020007C
:104A6C00414C41524D21000064070020303132335B
:104A7C003435363738396162636465666768696AEC
:104A8C006B6C6D6E6F707172737475767778797AF2
:104A9C00000000000000000000000000000000000A
:104AAC0000000000000000000000000000000000FA
:104ABC0000000000000000000000000000000000EA
:104ACC0000000000000000000000000000000000DA
:104ADC0000000000000000000000000000000000CA
:104AEC0000000000000000000000000000000000BA
:044AFC0000000000B6
:044B00005501000853
:044B04003101000873
:104B0800000000000000000000000000000000009D
:104B1800000000000000000000000000000000008D
:104B280030000000300000003000000030000000BD
:104B3800300000000000000030000000000000000D
:104B48006C0000006C0000006C0000000000000019
:104B5800000000000000000000000000000000004D
:104B68006C0000006C000000FE0000006C000000FB
:104B7800FE0000006C0000006C0000000000000057
:104B8800180000007E000000D80000007C00000033
:104B98001A000000FC0000001800000000000000DF
:104BA80060000000660000000C0000001800000013
:104BB8003000000066000000460000000000000011
:104BC80070000000D8000000D00000007000000055
:104BD800DA000000CC0000007A00000000000000AD
:104BE800380000001800000030000000000000003D
:104BF80000000000000000000000000000000000AD
:104C08001800000030000000600000006000000094
:104C180060000000300000001800000000000000E4
:104C280060000000300000001800000018000000BC
:104C380018000000300000006000000000000000C4
:104C480030000000B40000007800000030000000D0
:104C580078000000B40000003000000000000000F0
:104C6800000000003000000030000000FC000000E0
:104C780030000000300000000000000000000000CC
:104C8800000000000000000000000000000000001C
:104C980000000000E000000060000000C00000000C
:104CA8000000000000000000000000007C00000080
:104CB80000000000000000000000000000000000EC
:104CC80000000000000000000000000000000000DC
:104CD80000000000700000007000000000000000EC
:104CE800000000000C000000180000003000000068
:104CF80060000000C000000080000000000000000C
:104D080038000000C6000000CE000000D6000000F9
:104D1800E6000000C60000003800000000000000A7
:104D2800300000007000000030000000300000007B
:104D38003000000030000000780000000000000093
:104D480078000000CC0000000C00000018000000F3
:104D58003000000060000000FC00000000000000BF
:104D6800FC000000180000003000000018000000DF
:104D78000C000000CC0000007800000000000000DB
:104D88003800000078000000D800000098000000FB
:104D9800FC000000180000001800000000000000DF
:104DA800FC000000C0000000F80000000C0000003B
:104DB8000C000000CC00000078000000000000009B
:104DC8003800000060000000C0000000F80000008B
:104DD800CC000000CC0000007800000000000000BB
:104DE800FC0000000C00000018000000300000006B
:104DF800600000006000000060000000000000008B
:104E080078000000CC000000CC0000007800000012
:104E1800CC000000CC00000078000000000000007A
:104E280078000000CC000000CC0000007C000000EE
:104E38000C000000180000007000000000000000D6
:104E480000000000380000003800000000000000EA
:104E580038000000380000000000000000000000DA
:104E680000000000380000003800000000000000CA
:104E780038000000180000003000000000000000AA
:104E8800180000003000000060000000C0000000B2
:104E98006000000030000000180000000000000062
:104EA80000000000000000007C000000000000007E
:104EB8007C0000000000000000000000000000006E
:104EC8006000000030000000180000000C00000026
:104ED8001800000030000000600000000000000022
:104EE80078000000CC0000000C0000001800000052
:104EF800300000000000000030000000000000004A
:104F080038000000CC000000D6000000D6000000E9
:104F1800DC000000C00000003800000000000000B5
:104F280078000000CC000000CC000000FC0000006D
:104F3800CC000000CC000000CC0000000000000005
:104F4800F8000000CC000000CC000000F8000000D1
:104F5800CC000000CC000000F800000000000000B9
:104F680078000000CC000000C0000000C000000075
:104F7800C0000000CC000000780000000000000025
:104F8800F0000000D8000000CC000000CC000000B9
:104F9800CC000000D8000000F00000000000000075
:104FA800FC000000C0000000C0000000F800000085
:104FB800C0000000C0000000FC000000000000006D
:104FC800FC000000C0000000C0000000F800000065
:104FD800C0000000C0000000C00000000000000089
:104FE80078000000CC000000C0000000DC000000D9
:104FF800CC000000CC0000007C0000000000000095
:10500800CC000000CC000000CC000000FC00000038
:10501800CC000000CC000000CC0000000000000024
:105028007E000000180000001800000018000000B2
:1050380018000000180000007E00000000000000BA
:105048003C000000180000001800000018000000D4
:1050580018000000D80000007000000000000000E8
:10506800CC000000D8000000F0000000E0000000C4
:10507800F0000000D8000000CC0000000000000094
:10508800C0000000C0000000C0000000C000000018
:10509800C0000000C0000000FC000000000000008C
:1050A800C6000000EE000000FE000000D600000070
:1050B800C6000000C6000000C60000000000000096
:1050C800CC000000CC000000EC000000FC00000058
:1050D800DC000000CC000000CC0000000000000054
:1050E80078000000CC000000CC000000CC000000DC
:1050F800CC000000CC000000780000000000000098
:10510800F8000000CC000000CC000000F80000000F
:10511800C0000000C0000000C00000000000000047
:105128007C000000C6000000C6000000C6000000A9
:10513800D6000000C8000000740000000000000055
:10514800F8000000CC000000CC000000F8000000CF
:10515800F0000000D8000000CC00000000000000B3
:105168007C000000C0000000C000000078000000C3
:105178000C0000000C000000F80000000000000017
:10518800FC0000003000000030000000300000008B
:105198003000000030000000300000000000000077
:1051A800CC000000CC000000CC000000CC000000C7
:1051B800CC000000CC0000007800000000000000D7
:1051C800CC000000CC000000CC000000CC000000A7
:1051D800CC00000078000000300000000000000053
:1051E800C6000000C6000000C6000000D60000008F
:1051F800D6000000FE0000006C0000000000000067
:10520800C6000000C60000006C0000003800000066
:105218006C000000C6000000C6000000000000008E
:10522800CC000000CC000000CC000000780000009A
:1052380030000000300000003000000000000000D6
:10524800FC0000000C000000180000003000000006
:1052580060000000C0000000FC000000000000002A
:105268006407002000000000C04A0008E04A000867
:10527800A04A000800000000000000000000000034
:105288000000000000000000000000000000000016
:105298000000000000000000000000000000000006
:1052A80000000000000000000000000000000000F6
:1052B80000000000000000000000000000000000E6
:0452C80000000000E2
:0400000508003DE1D1
:00000001FF
